:020000040800F2
:1000000030090020BD240008C9220008CB220008C6
:10001000CD220008CF220008D122000800000000F5
:10002000000000000000000000000000D3220008D3
:10003000D522000800000000D7220008D9220008BD
:10004000F1240008F5240008F9240008FD24000824
:100050000125000805250008092500080D250008D0
:100060001125000815250008192500081D25000880
:100070002125000825250008292500082D25000830
:100080003125000835250008392500083D250008E0
:100090004125000845250008492500084D25000890
:1000A0005125000855250008592500085D25000840
:1000B000E12200086125000865250008692500087F
:1000C0006D250008712500087525000879250008B0
:1000D0007D25000881250008852500088925000860
:1000E000F12200088D2500089125000895250008BB
:1000F000992500089D250008A1250008A5250008D0
:10010000A9250008AD250008B1250008B52500087F
:10011000B9250008BD250008C1250008C52500082F
:10012000C9250008CD250008D1250008D5250008DF
:10013000D9250008DD250008E1250008E52500088F
:10014000E9250008ED250008F1250008F52500083F
:10015000F9250008FD2500080126000805260008ED
:10016000092600080D26000811260008152600089B
:10017000192600081D26000821260008000000009E
:1001800025260008292600082DE9FE4F0500002D30
:1001900001D1012011E3DFF87C98D9F8004014F078
:1001A0000C04DFF80889D8F8007017F003072878E6
:1001B000C00640F1C680002C03D00C2C7AD1012F50
:1001C00078D1DFF84CA8DAF80000800704D5A869D8
:1001D000002801D10120F0E2DAF80000000704D580
:1001E000DAF8000010F0F00005E0DFF8C40800685D
:1001F000000910F0F000296A88421ED2286A00F037
:100200000FFC002801D00120D7E2DAF8000050F0FE
:100210000800CAF80000DAF8001031F0F001286A8E
:100220000143CAF80010DFF88C08016831F47F41FF
:10023000EA6951EA022101601FE0DAF8000050F09B
:100240000800CAF80000DAF8001031F0F001286A5E
:100250000143CAF80010DFF85C08016831F47F41FF
:10026000EA6951EA02210160002C06D1286A00F0F7
:10027000D7FB002801D001209FE200F05EFBDFF8F1
:100280003818D9F80020C2F30312895C11F01F015D
:10029000C840DFF884170860DFF88007006800F0C6
:1002A0001FFC8DF800009DF80000002849D09DF843
:1002B000000082E2A86900282DD0DFF85497D9F811
:1002C000000050F00100C9F8000000F039FC060001
:1002D000D9F80000800706D400F032FC801B032808
:1002E000F6D3032069E2D9F8000050F00800C9F8FD
:1002F0000000D9F8001031F0F001286A0143C9F874
:100300000010DFF8B007016831F47F41EA6951EA73
:100310000221016015E0DFF8F896D9F800004008E6
:100320004000C9F8000000F00BFC0600D9F80000FE
:10033000800706D500F004FC801B0328F6D30320B9
:100340003BE22878C00754D5082C03D00C2C0BD1E5
:10035000032F09D1DFF8B8060068800349D5686823
:10036000002846D1012028E26868B0F5803F06D118
:10037000DFF89C06016851F48031016018E068687C
:10038000B0F5A02F0AD1DFF88806016851F480216A
:100390000160016851F48031016009E0DFF8700606
:1003A000016831F480310160016831F4802101601D
:1003B000686800280ED000F0C3FB0600DFF8500686
:1003C0000068800315D400F0BBFB801B6528F5D3C3
:1003D0000320F2E100F0B4FB0600DFF83406006809
:1003E000800306D500F0ACFB801B6528F5D3032005
:1003F000E3E12878800752D5042C03D00C2C15D1CA
:10040000022F13D1DFF808060068400504D5E8681C
:10041000002801D10120D0E1DFF89806016831F011
:10042000F8512A6951EA0261016038E0E868002861
:100430001FD0DFF8DC95D9F8000050F48070C9F8BF
:10044000000000F07DFB0600D9F80000400506D44E
:1004500000F076FB801B0328F6D30320ADE1DFF824
:100460005406016831F0F8512A6951EA02610160CD
:1004700015E0DFF89C95D9F8000030F48070C9F8D9
:10048000000000F05DFB0600D9F80000400506D52D
:1004900000F056FB801B0328F6D303208DE128785B
:1004A00000072ED56869002815D0DFF80496D9F822
:1004B000000050F00100C9F8000000F041FB060008
:1004C000D9F8000080071CD400F03AFB801B0328F9
:1004D000F6D3032071E1DFF8D895D9F80000400881
:1004E0004000C9F8000000F02BFB0600D9F800001E
:1004F000800706D500F024FB801B0328F6D30320D9
:100500005BE12878400740F181805FF00009DFF867
:10051000ACA5DAF80000C0000DD4DAF8000050F005
:100520008050CAF80000DAF8000010F08050019006
:10053000019801208146DFF888B5DBF80000C0058E
:1005400013D4DBF8000050F48070CBF8000000F00A
:10055000F7FA0600DBF80000C00506D400F0F0FA58
:10056000801B0328F6D3032027E1A868012806D1C1
:10057000DFF85005016851F00101016017E0A8683B
:1005800005280AD1DFF83C05016851F0040101603B
:10059000016851F00101016009E0DFF828050168F8
:1005A000490849000160016831F004010160A86850
:1005B000002810D000F0C4FA0600DFF80805006833
:1005C000800719D400F0BCFA801B41F289318842BF
:1005D000F3D30320F1E000F0B3FA0600DFF8E404FF
:1005E0000068800708D500F0ABFA801B41F2893122
:1005F0008842F3D30320E0E04846C0B2012805D189
:10060000DAF8000030F08050CAF80000A86A00282C
:1006100000F0D280A86A022840F0AC80D8F8000030
:10062000070017F00300E96A884226D117F070002E
:10063000296B491EB0EB011F1FD117F4FE40696BF7
:10064000B0EB012F19D1A86B072801D1002000E0E1
:10065000012017F4003181420FD117F4C000E96B7B
:100660004908491EB0EB415F07D117F0C060296C03
:100670004908491EB0EB416F5CD00C2C58D0DFF814
:1006800090A3DAF80000400103D4DAF80000C000BB
:1006900001D5012091E0DAF8000030F08070CAF84E
:1006A000000000F04DFA8146DAF80000800107D51D
:1006B00000F046FAB0EB09000328F5D303207CE0F4
:1006C000D8F80010DFF800040140E86A0143286B05
:1006D000401E51EA0011686B51EA0021E86B4008A6
:1006E000401E51EA4051286C4008401E51EA4061CA
:1006F000A86B000951EA4041C8F80010DAF8000080
:1007000050F08070CAF80000D8F8000050F08070F7
:10071000C8F8000000F014FA0600DAF800008001C2
:100720004AD400F00DFA801B0328F6D3032044E0DE
:10073000012042E0DFF8D892D9F8000080013BD4D4
:10074000D9F8000050F08070C9F80000D8F8000017
:1007500050F08070C8F8000000F0F2F90600D9F8F7
:100760000000800128D400F0EBF9801B0328F6D3A9
:10077000032022E00C2C1DD0DFF89492D9F8000061
:1007800030F08070C9F8000000F0DAF90600D9F8FE
:100790000000800106D500F0D3F9801B0328F6D3B2
:1007A00003200AE0D8F80010DFF820030140C8F861
:1007B000001001E0012000E00020BDE8FE8F2DE9DF
:1007C000F04104000D00002C01D10120B3E0DFF85E
:1007D0000073386810F00700A8420BD23868C008D0
:1007E000C00028433860386810F00700A84201D0E4
:1007F0000120A0E0207880070DD5DFF818120868E6
:1008000010F0F000A268904205D20A6832F0F002BF
:10081000A06802430A602078C00742D560680328B8
:1008200006D1DFF8EC01006880011CD4012082E0D1
:100830006068022806D1DFF8D8010068800312D46E
:10084000012078E06068002806D1DFF8C401006864
:10085000800708D401206EE0DFF8B401006840058D
:1008600001D4012067E0DFF8AC81D8F800108908D6
:10087000890060680143C8F8001000F061F90600C3
:10088000D8F8000010F00C006168B0EB810F08D0C0
:1008900000F056F9801B41F289318842F0D30320E1
:1008A00049E0207880070DD5DFF86811A0680A6854
:1008B00012F0F002904205D20A6832F0F002A0680D
:1008C00002430A60386810F0070085420BD238688E
:1008D000C008C00028433860386810F00700A842FC
:1008E00001D0012027E02078400706D549490A6851
:1008F00032F4E062E06802430A602078000707D51E
:100900004448016831F46051226951EAC201016032
:1009100000F013F8DFF8A0113E4A1268C2F3031288
:10092000895C11F01F01C8403B4908603B480068E2
:1009300000F0D6F8C0B2BDE8F0812DE9F041002604
:1009400000203449096811F00C01DFF860C1DCF8BF
:10095000007017F00307002903D00C291AD1012FCA
:1009600018D1DFF8ACE0DEF800805FEA087806D442
:10097000DFF83CE1DEF800E0CEF3032E03E0DEF822
:1009800000E0CEF3031E534E56F82E6000290CD122
:1009900030000AE0042903D1DFF83CE1704604E0AE
:1009A000082902D1DFF834E170460C292DD1DCF89A
:1009B00000E01EF0030E73469E46BEF1020F03D008
:1009C000BEF1030F03D005E0DFF80CE103E0DFF830
:1009D0000CE100E0B646DCF80020C2F30212521C23
:1009E0001500DCF80020C2F3062202FB0EFEBEFB5F
:1009F000F5F2DCF800C0CCF3416C1CF1010C5FEAAD
:100A00004C0C6446B2FBF4FC6046BDE8F08100008B
:100A100000100240081002401400002010000020C6
:100A20007CB504000025254E3068C00003D500F0D9
:100A30008DF801000FE0306850F080503060306871
:100A400010F080500090009800F080F801003068AD
:100A500030F080503060B1F5007F09D1812C15D382
:100A6000A12C02D30220050010E0012005000DE0BA
:100A7000812C02D30320050008E0802C02D1022043
:100A8000050003E0702C01D1012005001048026828
:100A9000D208D2002A430260006810F00700A84282
:100AA00001D0012000E0002076BD00000C100240C3
:100AB0009410024004100240AC2400085810024078
:100AC00000700040901002408C809DF9FCFFEEFE0B
:100AD00000200240142300080024F40000127A00D1
:100AE00038B5040000251349087800281DD04FF4BC
:100AF0007A700978B0FBF1F00F490968B1FBF0F0AA
:100B000000F005F900280DD1102C08D20022210098
:100B10005FF0FF3000F0DFF80848046007E00120D4
:100B2000050004E00120050001E001200500280087
:100B3000C0B232BD180000201400002010000020B8
:100B400001480068704700BF28050020DFF88000DA
:100B5000006810F4C060704710B40200B2F5007F66
:100B600025D1DFF86C00036813F4C063B3F5007F90
:100B70002AD00123046863F34A240460DFF8540098
:100B8000036832204343DFF85000B3FBF0F0401C11
:100B90000100DFF8480003685B0503D5002901D098
:100BA000491EF6E7006840050ED503200DE0DFF88A
:100BB0002000036813F4C063B3F5806F04D00223F0
:100BC000046863F34A240460002010BC70470000EE
:100BD000007000401400002040420F0014700040DC
:100BE00010B410F00703DFF8344122684FF6FF011C
:100BF0000A4052EA0322DFF828110A43226010BC9F
:100C00007047DFF818010068C0F302207047000049
:100C1000010049B2002909D4012210F01F018A40C5
:100C2000404903005BB25B0941F82320704710B4D0
:100C3000020052B2002A05D40A013B4B040064B200
:100C40001A5508E00A01394B040064B214F00F048D
:100C5000234403F8042C10BC704770B4030013F055
:100C60000704D4F10700052801D3042001E0D4F1E2
:100C70000700251D072D01D2002500E0E51E0126F5
:100C800016FA00F0401E0140A94016FA05F56D1E47
:100C90002A401143080070BC704710B50400601E64
:100CA000B0F1807F01D301200EE0601E2049086072
:100CB0000F215FF0FF30FFF7BAFF00201D490860E9
:100CC00007201D490860002010BD10B50400200059
:100CD000FFF786FF10BD2DE9F04104000D0016005E
:100CE0000027FFF78EFF8046320029004046FFF7BD
:100CF000B4FF0100200040B2FFF799FFBDE8F0818A
:100D000010B50400200040B2FFF782FF10BD10B5FF
:100D100004002000FFF7C1FF10BD00000CED00E053
:100D20000000FA0500E100E000E400E018ED00E05A
:100D300014E000E018E000E010E000E010B504006E
:100D4000002C01D1012035E094F83D00002805D1A8
:100D5000002084F83C00200000F093FA022084F880
:100D60003D00211D206800F0C7F9012084F84800EB
:100D7000012084F83E00012084F83F00012084F81F
:100D80004000012084F84100012084F84200012045
:100D900084F84300012084F84400012084F84500D1
:100DA000012084F84600012084F84700012084F8DF
:100DB0003D00002010BD010091F83D00012801D048
:100DC000012043E0022081F83D000868C06850F02F
:100DD00001000B68D8600868DFF8743098421CD0B6
:100DE0000868B0F1804F18D00868DFF86830984282
:100DF00013D00868DFF8603098420ED00868DFF83A
:100E00005C30984209D00868DFF85430984204D02A
:100E10000868DFF85030984211D108688368DFF81D
:100E2000480003401A00062A0FD0B2F5803F0CD0CC
:100E30000868006850F001000B68186005E0086859
:100E4000006850F001000B68186000207047000037
:100E5000002C01400004004000080040000C00404D
:100E600000340140004001400700010010B50400BB
:100E70002068006980071AD52068C068800716D5E9
:100E80007FF00200216808610120207720688069D6
:100E900010F0030F03D0200000F010FA05E020004E
:100EA00000F00DFA200000F00BFA002020772068F7
:100EB000006940071AD52068C068400716D57FF042
:100EC000040021680861022020772068806910F4FE
:100ED000407F03D0200000F0F1F905E0200000F091
:100EE000EEF9200000F0ECF900202077206800697E
:100EF00000071AD52068C068000716D57FF00800E3
:100F000021680861042020772068C06910F0030F71
:100F100003D0200000F0D2F905E0200000F0CFF966
:100F2000200000F0CDF90020207720680069C0067D
:100F30001AD52068C068C00616D57FF01000216859
:100F40000861082020772068C06910F4407F03D032
:100F5000200000F0B3F905E0200000F0B0F9200017
:100F600000F0AEF90020207720680069C0070AD59C
:100F70002068C068C00706D57FF0010021680861BD
:100F8000200000F0C6FA2068006900060AD5206833
:100F9000C068000606D57FF0800021680861200047
:100FA00000F0D4FA20680069C0050AD52068C0683E
:100FB000000606D57FF4807021680861200000F0EB
:100FC000C6FA2068006940060AD52068C068400655
:100FD00006D57FF0400021680861200000F0B8FAD3
:100FE0002068006980060AD52068C068800606D59A
:100FF0007FF0200021680861200000F0AAFA10BDEF
:10100000F8B504000D00002694F83C00012801D139
:1010100002206FE0012084F83C00022084F83D00AB
:1010200020688768DFF89801074037F47F47206819
:101030008760286800284ED010284CD020284AD03D
:10104000302848D040283CD0502826D060282ED0C8
:10105000702807D0B0F5805F03D0B0F5005F0FD0E7
:101060003EE03FE0EB686A68A968206800F0E7F8B6
:101070002068806850F0770007002068876031E0C2
:10108000EB686A68A968206800F0D9F82068806871
:1010900050F480402168886024E0EA68696820682C
:1010A00000F0A0F85021206800F0C1F81AE0EA68CA
:1010B0006968206800F0A8F86021206800F0B7F89F
:1010C00010E0EA686968206800F08CF84021206828
:1010D00000F0ADF806E02968206800F0A8F801E00B
:1010E00001200600012084F83D00002084F83C0027
:1010F0003000C0B2F2BD000010B40468DFF8C430A4
:10110000984212D0B0F1804F0FD0DFF8BC2090424F
:101110000BD0DFF8B820904207D0DFF8B42090421F
:1011200003D0DFF8B020904203D134F070044A6855
:10113000144398421ED0B0F1804F1BD0DFF88820B6
:10114000904217D0DFF88420904213D0DFF880203F
:1011500090420FD0DFF87C2090420BD0DFF878204F
:10116000904207D0DFF87420904203D0DFF870205F
:10117000904203D134F44074CA68144334F08004BC
:101180004A69144304608A68C2620A6882629842AB
:101190000FD0DFF8402090420BD0DFF83C20904287
:1011A00007D0DFF83820904203D0DFF83420904297
:1011B00001D10A6902630122426110BC704700003C
:1011C00088FFFEFF002C01400004004000080040A2
:1011D000000C004000340140004001400044014048
:1011E0000048014010B4046A036A5B085B000362B4
:1011F000836933F0F00353EA021334F00A040C431A
:101200008361046210BC704710B4036A33F01003AA
:1012100003628369046A33F4704353EA023334F09F
:10122000A00454EA01148361046210BC7047826810
:1012300032F070020A4352F007028260704710B425
:10124000846834F47F440C43144354EA03248460D8
:1012500010BC704781B01748016851F0010101606E
:10126000006810F00100009000981348016851F0E8
:1012700080510160006810F080500090009801B02B
:1012800070471CB504002068B0F1804F11D10A48A6
:10129000016851F001010160006810F00100009048
:1012A0000098002200211C20FFF715FD1C20FFF7ED
:1012B00027FD13BD60100240581002407047704770
:1012C00070470EE002684368024408305FEAC37C5E
:1012D00044BF4B445B1E52F804CB43F804CB091FB8
:1012E000F9D150F8041B0029ECD1704738B500F053
:1012F00031F900F03BF800F0ADF800F06FF8002095
:101300000090002300220021002000F0DCFA834A34
:101310008349002000F09DFD8248FFF74CFD00F05E
:10132000DCF8814C207800280DD0804D2868401CC6
:101330002860002000F0FDFA2A687D49002000F0B6
:1013400088FD002020707B4C20780028E7D07A4D63
:101350002868401C2860012000F0EBFA2A687749D1
:10136000002000F076FD00202070D8E780B596B010
:101370004422002105A800F07AFD142200216846CD
:1013800000F075FD4FF40070FFF7E6FB002801D078
:1013900000F0DAF8022005904FF4807008901020D9
:1013A000099000200F9005A8FEF7EEFE002801D05E
:1013B00000F0CAF80F200090012001900020029058
:1013C000002003900020049000216846FFF7F7F901
:1013D000002801D000F0B8F817B000BD18B587B0EC
:1013E0001022002103A800F042FD0C2200216846D3
:1013F00000F03DFD4B4C5FF0804020604FF47A5090
:1014000060600020A0604FF47A70E06000202061EE
:101410000020A0612000FFF791FC002801D000F01F
:1014200093F84FF48050039003A92000FFF7E8FDE4
:10143000002801D000F088F80020009000200290E1
:101440006946200000F01EFD002801D000F07CF865
:1014500008B010BD80B586B01422002101A800F0AC
:1014600006FD3748016851F004010160016811F080
:10147000040100910099016851F0010101600068C8
:1014800010F0010000900098002220215FF09040B1
:1014900000F03FFE4FF4005001905FF40410029002
:1014A0000020039001A9274800F046FD202001906C
:1014B00001200290002003900020049001A95FF019
:1014C000904000F039FD002200212820FFF703FCA6
:1014D0002820FFF715FC07B000BD80B50122694642
:1014E000002000F084F9002809D09DF80010302970
:1014F00005D100210D4A116000210F4A116001BD84
:10150000010089B2B1F5005F02D10121064A1170D4
:1015100070470121074A117070470000E824000855
:1015200074240008C40400202C050020200500209D
:10153000B42300082D05002024050020D423000832
:101540004C1002400008004872B6FEE77047704732
:101550007047704710B500240A48016851F4807143
:1015600001600320FFF7B1FB0020FFF7B9FA002864
:1015700002D00120040001E0FFF76CFE2000C0B2A1
:1015800010BD000000200240F8B5DFF83844A8255F
:101590000026270032002900380000F0F1FD03206A
:1015A000206103206061DFF82004A061DFF81C14D3
:1015B000E1614FF4806121620021A162002161623A
:1015C0000021E1622066DFF8080460661020A06652
:1015D000002020670020E06600206067BFF35F8F77
:1015E0000020102807D2DFF8EC1342421144C97BD7
:1015F0002154401CF5E7BFF35F8FF1BD2DE9FE4F8D
:1016000005000E0014005FF00008D5F80C90286962
:101610000700B94503D2B7EB0900401E04E0A868F3
:10162000B0EB09003818401EA968B1EB09018842E7
:1016300001D2824603E0D5F808A0BAEB090AA24518
:1016400000D3A246686848440090CDF808A00196EF
:10165000DDF800B0029A0199584600F0C5FD1AEB7A
:1016600008085644B4EB0A041AEB0909A868814536
:1016700001D100208146BFF35F8FC5F80C90002C8C
:10168000C5D14046BDE8FE8F2DE9F84F84B0040077
:101690000D001600E768D4F80880B8EB0708464547
:1016A0000FD2606800EB07090196AA46CB46019A63
:1016B0005146584600F098FDBFF35F8FF019E06087
:1016C00021E0CDF8008060683844019000980390D4
:1016D0000295DDF80490039A0299484600F084FDD3
:1016E000B6EB08000090D4F804900098019005EB48
:1016F000080ACB46019A5146584600F075FDBFF3E3
:101700005F8F0098E06005B0BDE8F08F01000A69C6
:10171000CB68934204D38868401EC01A101801E0B9
:10172000D01A401E70472DE9F14F84B00E0017000B
:10173000DFF89042A3469BF80000002801D1FFF794
:1017400023FF04991820414304EB010010F16008C5
:10175000B146D8F810A0D8F80C00019000240198E8
:10176000504520D2D8F80800B0EB0A00B84201D2A8
:10177000050000E03D00D8F80400504400900395B7
:1017800000980290CB46039A0299584600F02CFD2F
:101790002C19A9447F1B15EB0A0AD8F808008245CA
:1017A00001D1002082460198B0EB0A00B84201D274
:1017B000050000E03D00002D11D0D8F80400504491
:1017C0000090039500980290CB46039A02995846E0
:1017D00000F00AFD2C19A9447F1B15EB0A0A002C06
:1017E00001D0C8F810A0200005B0BDE8F08FF8B512
:1017F00004000D001600EFF31187202080F31188FC
:10180000320029002000FFF78EFF87F31188F2BD18
:101810002DE9F04704000D001600A846DFF8A401EA
:10182000182101FB04F1084410F1180ADAF8140039
:10183000002803D0022820D010D325E05046FFF71F
:1018400065FF0700B74202D25FF0000905E0B1462C
:10185000320041465046FFF717FF17E05046FFF7AA
:1018600055FF0700B74201D2B94600E0B1464A46EB
:1018700041465046FFF708FF08E032004146504617
:10188000FFF7BCFE814601E05FF000094846BDE875
:10189000F0872DE9F04104000D001600DFF82471F7
:1018A0003878002801D1FFF76FFEEFF31188202070
:1018B00080F31188320029002000FFF7A9FF88F388
:1018C0001188BDE8F0812DE9F84F04000D001600E5
:1018D0001F00DDF82880DFF8ECB0DA469AF8000047
:1018E000002801D1FFF750FE032C1ED2EFF3118127
:1018F000202080F31188182000FB04F05844183091
:101900008146002C0BD0C9F80050C9F80460C9F812
:1019100008700020C9F810000020C9F80C00C9F8B0
:10192000148081F31188002001E05FF0FF30BDE8F2
:10193000F28F2DE9F8430400224FB94699F80000D0
:10194000002801D1FFF720FE5FF00008FF208DF88E
:1019500000002000C0B210282ED21F482100C9B2BA
:10196000405C8DF8010017F118000500EFF31187B6
:10197000202080F31188287D10F00300022807D171
:1019800016480470022269462800FFF737FE10E06F
:101990002800FFF7BBFE0600022E07D30F48047095
:1019A000022269462800FFF76FFE02E05FF0FF3079
:1019B000804687F3118802E05FF0FF3080464046A2
:1019C000BDE8F2831C040020DC2400081C00002079
:1019D0001005002088240008000000202E050020AB
:1019E00070B504000D00A6686068711C884206D3BB
:1019F00020688555701CA060E068401CE060A0680D
:101A0000616888420DD1A26821682069FFF741FF13
:101A1000A168884203D05FF0FF30E06001E0002061
:101A2000A06070BD2DE9FE4F0700884691461E005C
:101A30000C9CC24601255FF0010BCA4504D3BAFBDA
:101A4000F9FA1BF1010BF8E7B34500D2B3460D9844
:101A5000C0071AD4002C18D00D98800705D5002E89
:101A600003D130208DF8000002E020208DF8000026
:101A7000002C0AD0A34508D2641E9DF8001038003F
:101A8000FFF7AEFFF8680028F2D5F868002830D4D8
:101A9000022E01D3761E05E0B8FBF5F00190019807
:101AA000484502D309FB05F5F2E7B8FBF5F00190D4
:101AB000019805FB108810480199415C3800FFF738
:101AC0008FFFF868002803D4B5FBF9F5002DECD1A1
:101AD0000D98C0070DD5002C0BD0002C09D0A345C4
:101AE00007D2641E20213800FFF77AFFF86800282B
:101AF000F3D5BDE8F78F00009C2400082DE9FE4FC8
:101B000006000F0090461D000C9CDDF83490002F5D
:101B100002D5D7F1000A00E0BA465FF0010BC245DA
:101B200004DB9AFBF8FA1BF1010BF8E7AB4500D296
:101B3000AB46002C05D0002F02D45FEA497000D5D7
:101B4000641E5FEA897001D5002D10D05FEAC9706C
:101B50000DD4002C0BD0002C09D0A34507D2641E55
:101B600020213000FFF73CFFF0680028F3D5F06833
:101B7000002831D4002F05D57F422D213000FFF7FA
:101B80002FFF06E05FEA497003D52B213000FFF7F5
:101B900027FFF06800281FD419F0030002280FD196
:101BA000002D0DD1002C0BD0002C09D0A34507D25D
:101BB000641E30213000FFF713FFF0680028F3D5D2
:101BC000F068002808D4CDF8049000942B00424619
:101BD00039003000FFF726FFBDE8F78F2DE9F14F00
:101BE00098B08946150007A8029040200390002075
:101BF0000490189806900020059099F800000600BF
:101C000019F101093000C0B2002800F00F81300046
:101C1000C0B2252840F00181002080460120040048
:101C200099F8000006003000C0B2232815D02B28F8
:101C30000ED02D2802D0302805D013E058F001082E
:101C400019F1010910E058F0020819F101090BE03F
:101C500058F0040819F1010906E058F0080819F1D4
:101C6000010901E000200400002CD9D100208246A7
:101C700099F8000006003000C0B2302803DB3000C5
:101C8000C0B23A2808DB0020070099F800100800CD
:101C9000C0B22E2820D109E019F101090A2000FB69
:101CA0000AFA5AFA86FABAF1300AE1E719F101099B
:101CB00099F8000001000800C0B2302803DB0800DA
:101CC000C0B23A2800DB07E019F101090A204743B6
:101CD00057FA81F7303FEBE799F800603000C0B267
:101CE0006C2803D03000C0B2682805D119F1010971
:101CF00099F800000600F1E73000C0B2252800F096
:101D00008480582841D063280AD0642817D07028CE
:101D100068D073284CD0752824D0782835D079E045
:101D200028682860286800682968091D296004005F
:101D3000A3465946C9B202A8FFF752FE6AE02868D6
:101D40002860286800682968091D29600400CDF80A
:101D50000480CDF800A03B000A22210002A8FFF772
:101D6000CDFE57E028682860286800682968091DAA
:101D700029600400CDF80480CDF800A03B000A22C1
:101D8000210002A8FFF74EFE44E02868286028687A
:101D900000682968091D29600400CDF80480CDF889
:101DA00000A03B001022210002A8FFF73BFE31E01B
:101DB000286828602868D0F800B02868001D2860CE
:101DC0009BF8000006001BF1010B3000C0B2002898
:101DD00007D03100C9B202A8FFF702FE059800281B
:101DE000EED517E028682860286800682968091D72
:101DF0002960040000200190082000900823102290
:101E0000210002A8FFF70EFE04E0252102A8FFF73B
:101E1000E7FDFFE719F1010904E03100C9B202A8AA
:101E2000FFF7DEFD059800287FF5E7AE059801284D
:101E30000BDB0498002804D0049A07A91898FFF730
:101E400028FD0599049841180591059819B0BDE839
:101E5000F08F0CB438B504000D0004A800906A4659
:101E600029002000FFF7BAFE32BC5DF80CFB10B56C
:101E7000044610460A460146204600F081F92046F5
:101E800010BD000070B4020092F83C00012801D19E
:101E9000022043E0012082F83C00022082F83D004D
:101EA00010684368106884681D4D1068A84203D00C
:101EB00010681F4EB04203D133F4700348680343E7
:101EC00033F0700308680343106843601068A84249
:101ED00017D01068B0F1804F13D01068114DA84290
:101EE0000FD01068104DA8420BD010680F4DA842BB
:101EF00007D010680E4DA84203D010680D4DA842BF
:101F000005D134F08004886804431068846001209F
:101F100082F83D00002082F83C00002070BC704731
:101F2000002C01400004004000080040000C00406C
:101F30000034014000400140F8B403000025086867
:101F4000E840002800F0E38001260F6816FA05F04B
:101F500007403A00002A00F0D880087910F003000A
:101F6000012804D0087910F0030002281DD19F68D1
:101F70005FF0030C68001CFA00FC37EA0C07D1F88C
:101F80000CC068001CFA00FC5CEA07079F60D3F8ED
:101F900004C016FA05F03CEA000C4868C0F30010D3
:101FA000A84050EA0C0C64465C60087910F003000D
:101FB000032809D1D86AAE40B0434E68C6F3C006C4
:101FC000AE4030430400DC62087910F003000328BF
:101FD0000AD0DE68032768008740BE438F68680028
:101FE00087403E433400DC60087910F0030002288B
:101FF00016D12800C00803EB8000006A0F26AF004E
:1020000017F01C07BE40B0430E69AF0017F01C0765
:10201000BE40304304002800C00803EB8000046287
:102020001E68032768008740BE430F7917F0030737
:10203000680087403E4334001C60486810F4403F0D
:1020400063D04248066856F001060660006810F04A
:102050000100009000983E4E2800800856F82000AD
:102060000F275FEA850C1CF00C0C17FA0CF7B8432D
:10207000B3F1904F01D100241EE0364CA34201D1B0
:10208000012419E0344CA34201D1022414E0334C62
:10209000A34201D103240FE0314CA34201D1042417
:1020A0000AE0304CA34201D1052405E02E4CA342A6
:1020B00001D1062400E00724AF0017F00C07BC4054
:1020C00020432C00A40846F82400284E346894438A
:1020D0004F68FF0200D514433460254E30689043AA
:1020E0004F68BF0200D510433060224C26689643EB
:1020F0004F68BF0300D5164326601F480468944309
:102100004F68FF0300D5144304606D1C17E7F1BC52
:1021100070471300DBB2002B03D00B009BB283612E
:1021200002E00B009BB28362704710B504001348B5
:102130000168220092B2114206D0210089B20160EA
:10214000200080B2FFF7DCF910BD000060100240F3
:10215000080001400004004800080048000C004846
:10216000001000480014004800180048080401400E
:102170000C04014004040140000401401404014027
:1021800062F30F2262F31F42401810F0030308D0DD
:10219000C91A1FD3DB0748BF00F8012D28BF20F85C
:1021A000022D130030B414461546103928BF20E91B
:1021B0003C00FAD8490728BF20E90C0048BF40F886
:1021C000042D890028BF20F8022D48BF00F8012DFA
:1021D00030BC7047C91818BF00F8012DCB0728BFC5
:1021E00000F8012D7047000062B38B0708D0521E23
:1021F00011F8013B00F8013B00F024808B07F6D179
:10220000830740F0208000BF103A07D330B4B1E814
:102210003810103AA0E83810F9D230BC530724BF68
:10222000B1E80810A0E8081044BF51F8043B40F89A
:10223000043BD20724BF31F8022B20F8022B44BF05
:102240000B7803707047121F17D35B0009D151F848
:10225000043B20F8023B1B0C121F20F8023BF6D275
:102260000BE051F8043B00F8013B1B0A20F8023B4D
:102270001B0C121F00F8013BF3D238BF121D521E77
:1022800024BF11F8013B00F8013BF8D8704730B487
:10229000002512E050F8042BD30744BF4A44521ED5
:1022A000091F042942F8045BFAD213468C0744BF85
:1022B00015809B1CC90748BF1D7050F8041B0029DE
:1022C000E8D130BC70470000FEE7FEE7FEE7FEE71E
:1022D000FEE770477047704780B500F00FF801BD0A
:1022E00080B50248FEF7C2FD01BD0000C404002015
:1022F00080B54FF40050FFF718FF01BD0348016897
:10230000034A127889180160704700BF2805002031
:1023100018000020A0860100400D0300801A06006E
:1023200000350C0040420F0080841E0000093D0073
:1023300000127A000024F40000366E010048E80123
:10234000006CDC0210B5074979441831064C7C4416
:10235000163404E00A68081D114488470146A1426A
:10236000F8D110BD2C0000004C0000004EF6885142
:10237000CEF20001086840F470000860BFF34F8F90
:10238000BFF36F8F4FF00170E1EE100A704700004D
:10239000FFFEFFFF140500001C00002000000000ED
:1023A00023EFFFFF1C000000B00000000000002031
:1023B00000000000204E756D626572206F6620423D
:1023C0007574746F6E20507265737365733A20254F
:1023D000640D0A00204E756D626572206F66205490
:1023E000696D65722052696E67733A2025640D0A23
:1023F0000000000000F00DF8002801D0FFF7A2FF58
:10240000AFF300800020AFF30080FEF76FFF00F015
:1024100002F80120704700F001B800000746384676
:1024200000F002F8FBE7000080B5AFF30080024A3D
:1024300011001820ABBEFBE726000200054801464C
:1024400003B4684680F30988AFF30080FFF78EFF7E
:10245000FFF7D0FFA5EDF5FE303132333435363796
:1024600038394142434445461000000000093D0010
:102470000100000053544D33324C34205254542048
:1024800025730D0A000000000000000000005454F5
:102490005220524547474553000000003031323347
:1024A0003435363738394142434445460000000050
:1024B00000000000010203040607080901488047E4
:1024C00001480047CD2400083D2400080248016867
:1024D00051F470010160704788ED00E05465726D41
:1024E000696E616C0000000076312E302E300000E5
:1024F000FFF7FEBFFFF7FEBFFFF7FEBFFFF7FEBF10
:10250000FFF7FEBFFFF7FEBFFFF7FEBFFFF7FEBFFF
:10251000FFF7FEBFFFF7FEBFFFF7FEBFFFF7FEBFEF
:10252000FFF7FEBFFFF7FEBFFFF7FEBFFFF7FEBFDF
:10253000FFF7FEBFFFF7FEBFFFF7FEBFFFF7FEBFCF
:10254000FFF7FEBFFFF7FEBFFFF7FEBFFFF7FEBFBF
:10255000FFF7FEBFFFF7FEBFFFF7FEBFFFF7FEBFAF
:10256000FFF7FEBFFFF7FEBFFFF7FEBFFFF7FEBF9F
:10257000FFF7FEBFFFF7FEBFFFF7FEBFFFF7FEBF8F
:10258000FFF7FEBFFFF7FEBFFFF7FEBFFFF7FEBF7F
:10259000FFF7FEBFFFF7FEBFFFF7FEBFFFF7FEBF6F
:1025A000FFF7FEBFFFF7FEBFFFF7FEBFFFF7FEBF5F
:1025B000FFF7FEBFFFF7FEBFFFF7FEBFFFF7FEBF4F
:1025C000FFF7FEBFFFF7FEBFFFF7FEBFFFF7FEBF3F
:1025D000FFF7FEBFFFF7FEBFFFF7FEBFFFF7FEBF2F
:1025E000FFF7FEBFFFF7FEBFFFF7FEBFFFF7FEBF1F
:1025F000FFF7FEBFFFF7FEBFFFF7FEBFFFF7FEBF0F
:10260000FFF7FEBFFFF7FEBFFFF7FEBFFFF7FEBFFE
:10261000FFF7FEBFFFF7FEBFFFF7FEBFFFF7FEBFEE
:0C262000FFF7FEBFFFF7FEBFFFF7FEBF95
:040000050800243D8E
:00000001FF
